{
  "contractName": "Timecap",
  "abi": [
    {
      "inputs": [
        {
          "internalType": "string",
          "name": "_company",
          "type": "string"
        }
      ],
      "payable": false,
      "stateMutability": "nonpayable",
      "type": "constructor"
    },
    {
      "constant": false,
      "inputs": [
        {
          "internalType": "string",
          "name": "_empNumber",
          "type": "string"
        },
        {
          "internalType": "uint256",
          "name": "_hireDate",
          "type": "uint256"
        },
        {
          "internalType": "uint256",
          "name": "_openDate",
          "type": "uint256"
        },
        {
          "internalType": "uint256",
          "name": "_money",
          "type": "uint256"
        },
        {
          "internalType": "string[]",
          "name": "_answers",
          "type": "string[]"
        }
      ],
      "name": "newCap",
      "outputs": [],
      "payable": true,
      "stateMutability": "payable",
      "type": "function"
    },
    {
      "constant": false,
      "inputs": [
        {
          "internalType": "string",
          "name": "_empNumber",
          "type": "string"
        }
      ],
      "name": "openCap",
      "outputs": [
        {
          "internalType": "string[]",
          "name": "",
          "type": "string[]"
        }
      ],
      "payable": true,
      "stateMutability": "payable",
      "type": "function"
    },
    {
      "constant": true,
      "inputs": [
        {
          "internalType": "string",
          "name": "_empNumber",
          "type": "string"
        }
      ],
      "name": "isEmpExist",
      "outputs": [
        {
          "internalType": "bool",
          "name": "",
          "type": "bool"
        }
      ],
      "payable": false,
      "stateMutability": "view",
      "type": "function"
    }
  ],
  "bytecode": "0x60806040523480156200001157600080fd5b506040516200115d3803806200115d8339818101604052620000379190810190620001a3565b80600090805190602001906200004f92919062000098565b5033600160006101000a81548173ffffffffffffffffffffffffffffffffffffffff021916908373ffffffffffffffffffffffffffffffffffffffff1602179055505062000279565b828054600181600116156101000203166002900490600052602060002090601f016020900481019282601f10620000db57805160ff19168380011785556200010c565b828001600101855582156200010c579182015b828111156200010b578251825591602001919060010190620000ee565b5b5090506200011b91906200011f565b5090565b6200014491905b808211156200014057600081600090555060010162000126565b5090565b90565b600082601f8301126200015957600080fd5b8151620001706200016a8262000216565b620001e8565b915080825260208301602083018583830111156200018d57600080fd5b6200019a83828462000243565b50505092915050565b600060208284031215620001b657600080fd5b600082015167ffffffffffffffff811115620001d157600080fd5b620001df8482850162000147565b91505092915050565b6000604051905081810181811067ffffffffffffffff821117156200020c57600080fd5b8060405250919050565b600067ffffffffffffffff8211156200022e57600080fd5b601f19601f8301169050602081019050919050565b60005b838110156200026357808201518184015260208101905062000246565b8381111562000273576000848401525b50505050565b610ed480620002896000396000f3fe6080604052600436106100345760003560e01c80631350aaec1461003957806346447167146100695780636715c95514610085575b600080fd5b610053600480360361004e9190810190610892565b6100c2565b6040516100609190610c2b565b60405180910390f35b610083600480360361007e91908101906108d3565b6103d7565b005b34801561009157600080fd5b506100ac60048036036100a79190810190610892565b61059f565b6040516100b99190610c4d565b60405180910390f35b6060600115156100d18361059f565b151514610113576040517f08c379a000000000000000000000000000000000000000000000000000000000815260040161010a90610ca8565b60405180910390fd5b6002826040516101239190610c14565b908152602001604051809103902060000160009054906101000a900473ffffffffffffffffffffffffffffffffffffffff1673ffffffffffffffffffffffffffffffffffffffff163373ffffffffffffffffffffffffffffffffffffffff16146101c2576040517f08c379a00000000000000000000000000000000000000000000000000000000081526004016101b990610c88565b60405180910390fd5b6002826040516101d29190610c14565b908152602001604051809103902060020154421015610226576040517f08c379a000000000000000000000000000000000000000000000000000000000815260040161021d90610cc8565b60405180910390fd5b6002826040516102369190610c14565b908152602001604051809103902060000160009054906101000a900473ffffffffffffffffffffffffffffffffffffffff1673ffffffffffffffffffffffffffffffffffffffff166108fc6002846040516102919190610c14565b9081526020016040518091039020600301549081150290604051600060405180830381858888f193505050501580156102ce573d6000803e3d6000fd5b506002826040516102df9190610c14565b9081526020016040518091039020600401805480602002602001604051908101604052809291908181526020016000905b828210156103cc578382906000526020600020018054600181600116156101000203166002900480601f0160208091040260200160405190810160405280929190818152602001828054600181600116156101000203166002900480156103b85780601f1061038d576101008083540402835291602001916103b8565b820191906000526020600020905b81548152906001019060200180831161039b57829003601f168201915b505050505081526020019060010190610310565b505050509050919050565b600015156103e48661059f565b151514610426576040517f08c379a000000000000000000000000000000000000000000000000000000000815260040161041d90610c68565b60405180910390fd5b6040518060c001604052803373ffffffffffffffffffffffffffffffffffffffff1681526020016001151581526020018581526020018481526020018381526020018281525060028660405161047c9190610c14565b908152602001604051809103902060008201518160000160006101000a81548173ffffffffffffffffffffffffffffffffffffffff021916908373ffffffffffffffffffffffffffffffffffffffff16021790555060208201518160000160146101000a81548160ff02191690831515021790555060408201518160010155606082015181600201556080820151816003015560a082015181600401908051906020019061052b9291906105e8565b50905050600160009054906101000a900473ffffffffffffffffffffffffffffffffffffffff1673ffffffffffffffffffffffffffffffffffffffff166108fc839081150290604051600060405180830381858888f19350505050158015610597573d6000803e3d6000fd5b505050505050565b60006002826040516105b19190610c14565b908152602001604051809103902060000160149054906101000a900460ff16156105de57600190506105e3565b600090505b919050565b828054828255906000526020600020908101928215610637579160200282015b82811115610636578251829080519060200190610626929190610648565b5091602001919060010190610608565b5b50905061064491906106c8565b5090565b828054600181600116156101000203166002900490600052602060002090601f016020900481019282601f1061068957805160ff19168380011785556106b7565b828001600101855582156106b7579182015b828111156106b657825182559160200191906001019061069b565b5b5090506106c491906106f4565b5090565b6106f191905b808211156106ed57600081816106e49190610719565b506001016106ce565b5090565b90565b61071691905b808211156107125760008160009055506001016106fa565b5090565b90565b50805460018160011615610100020316600290046000825580601f1061073f575061075e565b601f01602090049060005260206000209081019061075d91906106f4565b5b50565b600082601f83011261077257600080fd5b813561078561078082610d15565b610ce8565b9150818183526020840193506020810190508360005b838110156107cb57813586016107b188826107d5565b84526020840193506020830192505060018101905061079b565b5050505092915050565b600082601f8301126107e657600080fd5b81356107f96107f482610d3d565b610ce8565b9150808252602083016020830185838301111561081557600080fd5b610820838284610e27565b50505092915050565b600082601f83011261083a57600080fd5b813561084d61084882610d69565b610ce8565b9150808252602083016020830185838301111561086957600080fd5b610874838284610e27565b50505092915050565b60008135905061088c81610e7a565b92915050565b6000602082840312156108a457600080fd5b600082013567ffffffffffffffff8111156108be57600080fd5b6108ca84828501610829565b91505092915050565b600080600080600060a086880312156108eb57600080fd5b600086013567ffffffffffffffff81111561090557600080fd5b61091188828901610829565b95505060206109228882890161087d565b94505060406109338882890161087d565b93505060606109448882890161087d565b925050608086013567ffffffffffffffff81111561096157600080fd5b61096d88828901610761565b9150509295509295909350565b60006109868383610a43565b905092915050565b600061099982610da5565b6109a38185610dd3565b9350836020820285016109b585610d95565b8060005b858110156109f157848403895281516109d2858261097a565b94506109dd83610dc6565b925060208a019950506001810190506109b9565b50829750879550505050505092915050565b610a0c81610e11565b82525050565b6000610a1d82610dbb565b610a278185610e06565b9350610a37818560208601610e36565b80840191505092915050565b6000610a4e82610db0565b610a588185610de4565b9350610a68818560208601610e36565b610a7181610e69565b840191505092915050565b6000610a89603583610df5565b91507f5b4552524f525d20436865636b2074686520656d706c6f796565206e756d626560008301527f722e0a497420616c7265616479206578697374732100000000000000000000006020830152604082019050919050565b6000610aef603483610df5565b91507f5b4552524f525d2057726f6e672077616c6c65742061646472657373210a596f60008301527f7520617265206e6f7420746865206f776e65722e0000000000000000000000006020830152604082019050919050565b6000610b55604183610df5565b91507f5b4552524f525d2054686572652773206e6f2063617073756c6520646174612060008301527f6f6620656d706c6f796565206e756d6265722e0a506c6561736520636865636b60208301527f21000000000000000000000000000000000000000000000000000000000000006040830152606082019050919050565b6000610be1601b83610df5565b91507f5b4552524f525d20596f752063616e2774206f70656e207965742100000000006000830152602082019050919050565b6000610c208284610a12565b915081905092915050565b60006020820190508181036000830152610c45818461098e565b905092915050565b6000602082019050610c626000830184610a03565b92915050565b60006020820190508181036000830152610c8181610a7c565b9050919050565b60006020820190508181036000830152610ca181610ae2565b9050919050565b60006020820190508181036000830152610cc181610b48565b9050919050565b60006020820190508181036000830152610ce181610bd4565b9050919050565b6000604051905081810181811067ffffffffffffffff82111715610d0b57600080fd5b8060405250919050565b600067ffffffffffffffff821115610d2c57600080fd5b602082029050602081019050919050565b600067ffffffffffffffff821115610d5457600080fd5b601f19601f8301169050602081019050919050565b600067ffffffffffffffff821115610d8057600080fd5b601f19601f8301169050602081019050919050565b6000819050602082019050919050565b600081519050919050565b600081519050919050565b600081519050919050565b6000602082019050919050565b600082825260208201905092915050565b600082825260208201905092915050565b600082825260208201905092915050565b600081905092915050565b60008115159050919050565b6000819050919050565b82818337600083830152505050565b60005b83811015610e54578082015181840152602081019050610e39565b83811115610e63576000848401525b50505050565b6000601f19601f8301169050919050565b610e8381610e1d565b8114610e8e57600080fd5b5056fea365627a7a72315820686b89354b13abfad6b2e109021e067a56764b519f4277bbc0a74801b36afd6d6c6578706572696d656e74616cf564736f6c63430005100040",
  "source": "pragma solidity >=0.4.22 <0.8.0;\r\npragma experimental ABIEncoderV2;\r\n\r\ncontract Timecap {\r\n    string company; //company name\r\n    address payable companyAddr;\r\n    mapping(string => timecap) employeeMap; //employeeNumber -- employeeData\r\n\r\n    struct timecap {\r\n        address payable walletAddr;\r\n        bool isValid;\r\n        uint hireDate;\r\n        uint openDate;\r\n        \r\n        uint money;\r\n        \r\n        string[] answers;\r\n    }\r\n    \r\n    \r\n    constructor (string memory _company) public {\r\n        company = _company;\r\n        companyAddr = msg.sender;\r\n    }\r\n    \r\n    \r\n    function newCap(string memory _empNumber, uint _hireDate, uint _openDate, uint _money, string[] memory _answers) public payable{\r\n        require(isEmpExist(_empNumber)==false, \"[ERROR] Check the employee number.\\nIt already exists!\");\r\n        \r\n        employeeMap[_empNumber] = timecap(msg.sender, true, _hireDate, _openDate, _money, _answers);\r\n       companyAddr.transfer(_money);\r\n    }\r\n    \r\n    \r\n    function openCap(string memory _empNumber) public payable returns (string[] memory){\r\n        require(isEmpExist(_empNumber)==true, \"[ERROR] There's no capsule data of employee number.\\nPlease check!\");\r\n        require(msg.sender == employeeMap[_empNumber].walletAddr, \"[ERROR] Wrong wallet address!\\nYou are not the owner.\");\r\n        require(now >= employeeMap[_empNumber].openDate, \"[ERROR] You can't open yet!\");\r\n        \r\n        employeeMap[_empNumber].walletAddr.transfer(employeeMap[_empNumber].money);\r\n        \r\n        return employeeMap[_empNumber].answers;\r\n    }\r\n    \r\n    \r\n    function isEmpExist(string memory _empNumber) public view returns (bool){\r\n        if(employeeMap[_empNumber].isValid){\r\n            return true;\r\n        }\r\n        else return false;\r\n    }\r\n}",
  "sourcePath": "C:/Project/nh_ojt_e/CapBox/contracts/TimeCap.sol",
  "compiler": {
    "name": "solc",
    "version": "0.5.16+commit.9c3226ce.Emscripten.clang"
  },
  "schemaVersion": "3.2.5",
  "updatedAt": "2020-09-16T05:35:33.615Z",
  "devdoc": {
    "methods": {}
  },
  "userdoc": {
    "methods": {}
  }
}