{
  "contractName": "Timecap",
  "abi": [
    {
      "inputs": [],
      "payable": false,
      "stateMutability": "nonpayable",
      "type": "constructor"
    },
    {
      "constant": false,
      "inputs": [
        {
          "internalType": "string",
          "name": "_company",
          "type": "string"
        }
      ],
      "name": "setName",
      "outputs": [],
      "payable": false,
      "stateMutability": "nonpayable",
      "type": "function"
    },
    {
      "constant": false,
      "inputs": [
        {
          "internalType": "string",
          "name": "_empNumber",
          "type": "string"
        },
        {
          "internalType": "uint256",
          "name": "_hireDate",
          "type": "uint256"
        },
        {
          "internalType": "uint256",
          "name": "_openDate",
          "type": "uint256"
        },
        {
          "internalType": "uint256",
          "name": "_money",
          "type": "uint256"
        },
        {
          "internalType": "string",
          "name": "_ans1",
          "type": "string"
        },
        {
          "internalType": "string",
          "name": "_ans2",
          "type": "string"
        },
        {
          "internalType": "string",
          "name": "_ans3",
          "type": "string"
        },
        {
          "internalType": "string",
          "name": "_ans4",
          "type": "string"
        },
        {
          "internalType": "string",
          "name": "_ans5",
          "type": "string"
        },
        {
          "internalType": "string",
          "name": "_ans6",
          "type": "string"
        }
      ],
      "name": "newCap",
      "outputs": [],
      "payable": true,
      "stateMutability": "payable",
      "type": "function"
    },
    {
      "constant": false,
      "inputs": [
        {
          "internalType": "string",
          "name": "_empNumber",
          "type": "string"
        }
      ],
      "name": "openCap",
      "outputs": [
        {
          "internalType": "string",
          "name": "",
          "type": "string"
        }
      ],
      "payable": true,
      "stateMutability": "payable",
      "type": "function"
    },
    {
      "constant": true,
      "inputs": [
        {
          "internalType": "string",
          "name": "_empNumber",
          "type": "string"
        }
      ],
      "name": "isEmpExist",
      "outputs": [
        {
          "internalType": "bool",
          "name": "",
          "type": "bool"
        }
      ],
      "payable": false,
      "stateMutability": "view",
      "type": "function"
    }
  ],
  "bytecode": "0x608060405234801561001057600080fd5b5033600160006101000a81548173ffffffffffffffffffffffffffffffffffffffff021916908373ffffffffffffffffffffffffffffffffffffffff160217905550610e21806100616000396000f3fe60806040526004361061003f5760003560e01c80631350aaec146100445780636715c95514610074578063b300e813146100b1578063c47f0027146100cd575b600080fd5b61005e60048036036100599190810190610835565b6100f6565b60405161006b9190610c3c565b60405180910390f35b34801561008057600080fd5b5061009b60048036036100969190810190610835565b6103c4565b6040516100a89190610c21565b60405180910390f35b6100cb60048036036100c69190810190610876565b61040d565b005b3480156100d957600080fd5b506100f460048036036100ef9190810190610835565b61068d565b005b606060011515610105836103c4565b151514610147576040517f08c379a000000000000000000000000000000000000000000000000000000000815260040161013e90610c9e565b60405180910390fd5b6002826040516101579190610c0a565b908152602001604051809103902060000160009054906101000a900473ffffffffffffffffffffffffffffffffffffffff1673ffffffffffffffffffffffffffffffffffffffff163373ffffffffffffffffffffffffffffffffffffffff16146101f6576040517f08c379a00000000000000000000000000000000000000000000000000000000081526004016101ed90610c7e565b60405180910390fd5b6002826040516102069190610c0a565b90815260200160405180910390206002015442101561025a576040517f08c379a000000000000000000000000000000000000000000000000000000000815260040161025190610cbe565b60405180910390fd5b60028260405161026a9190610c0a565b908152602001604051809103902060000160009054906101000a900473ffffffffffffffffffffffffffffffffffffffff1673ffffffffffffffffffffffffffffffffffffffff166108fc6002846040516102c59190610c0a565b9081526020016040518091039020600301549081150290604051600060405180830381858888f19350505050158015610302573d6000803e3d6000fd5b506002826040516103139190610c0a565b90815260200160405180910390206004018054600181600116156101000203166002900480601f0160208091040260200160405190810160405280929190818152602001828054600181600116156101000203166002900480156103b85780601f1061038d576101008083540402835291602001916103b8565b820191906000526020600020905b81548152906001019060200180831161039b57829003601f168201915b50505050509050919050565b60006002826040516103d69190610c0a565b908152602001604051809103902060000160149054906101000a900460ff16156104035760019050610408565b600090505b919050565b6000151561041a8b6103c4565b15151461045c576040517f08c379a000000000000000000000000000000000000000000000000000000000815260040161045390610c5e565b60405180910390fd5b6040518061016001604052803373ffffffffffffffffffffffffffffffffffffffff1681526020016001151581526020018a81526020018981526020018881526020018781526020018681526020018581526020018481526020018381526020018281525060028b6040516104d19190610c0a565b908152602001604051809103902060008201518160000160006101000a81548173ffffffffffffffffffffffffffffffffffffffff021916908373ffffffffffffffffffffffffffffffffffffffff16021790555060208201518160000160146101000a81548160ff02191690831515021790555060408201518160010155606082015181600201556080820151816003015560a08201518160040190805190602001906105809291906106a7565b5060c082015181600501908051906020019061059d9291906106a7565b5060e08201518160060190805190602001906105ba9291906106a7565b506101008201518160070190805190602001906105d89291906106a7565b506101208201518160080190805190602001906105f69291906106a7565b506101408201518160090190805190602001906106149291906106a7565b50905050600160009054906101000a900473ffffffffffffffffffffffffffffffffffffffff1673ffffffffffffffffffffffffffffffffffffffff166108fc349081150290604051600060405180830381858888f19350505050158015610680573d6000803e3d6000fd5b5050505050505050505050565b80600090805190602001906106a3929190610727565b5050565b828054600181600116156101000203166002900490600052602060002090601f016020900481019282601f106106e857805160ff1916838001178555610716565b82800160010185558215610716579182015b828111156107155782518255916020019190600101906106fa565b5b50905061072391906107a7565b5090565b828054600181600116156101000203166002900490600052602060002090601f016020900481019282601f1061076857805160ff1916838001178555610796565b82800160010185558215610796579182015b8281111561079557825182559160200191906001019061077a565b5b5090506107a391906107a7565b5090565b6107c991905b808211156107c55760008160009055506001016107ad565b5090565b90565b600082601f8301126107dd57600080fd5b81356107f06107eb82610d0b565b610cde565b9150808252602083016020830185838301111561080c57600080fd5b610817838284610d74565b50505092915050565b60008135905061082f81610dc7565b92915050565b60006020828403121561084757600080fd5b600082013567ffffffffffffffff81111561086157600080fd5b61086d848285016107cc565b91505092915050565b6000806000806000806000806000806101408b8d03121561089657600080fd5b60008b013567ffffffffffffffff8111156108b057600080fd5b6108bc8d828e016107cc565b9a505060206108cd8d828e01610820565b99505060406108de8d828e01610820565b98505060606108ef8d828e01610820565b97505060808b013567ffffffffffffffff81111561090c57600080fd5b6109188d828e016107cc565b96505060a08b013567ffffffffffffffff81111561093557600080fd5b6109418d828e016107cc565b95505060c08b013567ffffffffffffffff81111561095e57600080fd5b61096a8d828e016107cc565b94505060e08b013567ffffffffffffffff81111561098757600080fd5b6109938d828e016107cc565b9350506101008b013567ffffffffffffffff8111156109b157600080fd5b6109bd8d828e016107cc565b9250506101208b013567ffffffffffffffff8111156109db57600080fd5b6109e78d828e016107cc565b9150509295989b9194979a5092959850565b610a0281610d5e565b82525050565b6000610a1382610d37565b610a1d8185610d42565b9350610a2d818560208601610d83565b610a3681610db6565b840191505092915050565b6000610a4c82610d37565b610a568185610d53565b9350610a66818560208601610d83565b80840191505092915050565b6000610a7f603583610d42565b91507f5b4552524f525d20436865636b2074686520656d706c6f796565206e756d626560008301527f722e0a497420616c7265616479206578697374732100000000000000000000006020830152604082019050919050565b6000610ae5603483610d42565b91507f5b4552524f525d2057726f6e672077616c6c65742061646472657373210a596f60008301527f7520617265206e6f7420746865206f776e65722e0000000000000000000000006020830152604082019050919050565b6000610b4b604183610d42565b91507f5b4552524f525d2054686572652773206e6f2063617073756c6520646174612060008301527f6f6620656d706c6f796565206e756d6265722e0a506c6561736520636865636b60208301527f21000000000000000000000000000000000000000000000000000000000000006040830152606082019050919050565b6000610bd7601b83610d42565b91507f5b4552524f525d20596f752063616e2774206f70656e207965742100000000006000830152602082019050919050565b6000610c168284610a41565b915081905092915050565b6000602082019050610c3660008301846109f9565b92915050565b60006020820190508181036000830152610c568184610a08565b905092915050565b60006020820190508181036000830152610c7781610a72565b9050919050565b60006020820190508181036000830152610c9781610ad8565b9050919050565b60006020820190508181036000830152610cb781610b3e565b9050919050565b60006020820190508181036000830152610cd781610bca565b9050919050565b6000604051905081810181811067ffffffffffffffff82111715610d0157600080fd5b8060405250919050565b600067ffffffffffffffff821115610d2257600080fd5b601f19601f8301169050602081019050919050565b600081519050919050565b600082825260208201905092915050565b600081905092915050565b60008115159050919050565b6000819050919050565b82818337600083830152505050565b60005b83811015610da1578082015181840152602081019050610d86565b83811115610db0576000848401525b50505050565b6000601f19601f8301169050919050565b610dd081610d6a565b8114610ddb57600080fd5b5056fea365627a7a723158201b4df44c47fa762a29b39f763e6aa45b85bd81759fad027777eeec40db6bd5cd6c6578706572696d656e74616cf564736f6c63430005100040",
  "source": "pragma solidity >=0.4.22 <0.8.0;\r\npragma experimental ABIEncoderV2;\r\n\r\ncontract Timecap {\r\n    string company; //company name\r\n    address payable companyAddr;\r\n    mapping(string => timecap) employeeMap; //employeeNumber -- employeeData\r\n\r\n    struct timecap {\r\n        address payable walletAddr;\r\n        bool isValid;\r\n        uint hireDate;\r\n        uint openDate;\r\n        \r\n        uint money;\r\n        \r\n        string ans1;\r\n        string ans2;\r\n        string ans3;\r\n        string ans4;\r\n        string ans5;\r\n        string ans6;\r\n    }\r\n    \r\n    \r\n    constructor () public {\r\n        companyAddr = msg.sender;\r\n    }\r\n\r\n    function setName(string memory _company) public {\r\n        company = _company;\r\n    }\r\n    \r\n    \r\n    function newCap(string memory _empNumber, uint _hireDate, uint _openDate, uint _money, string memory _ans1, string memory _ans2, string memory _ans3, string memory _ans4, string memory _ans5, string memory _ans6) public payable{\r\n        require(isEmpExist(_empNumber)==false, \"[ERROR] Check the employee number.\\nIt already exists!\");\r\n        \r\n        employeeMap[_empNumber] = timecap(msg.sender, true, _hireDate, _openDate, _money, _ans1, _ans2, _ans3, _ans4, _ans5, _ans6);\r\n       companyAddr.transfer(msg.value);\r\n    }\r\n    \r\n    \r\n    function openCap(string memory _empNumber) public payable returns (string memory){\r\n        require(isEmpExist(_empNumber)==true, \"[ERROR] There's no capsule data of employee number.\\nPlease check!\");\r\n        require(msg.sender == employeeMap[_empNumber].walletAddr, \"[ERROR] Wrong wallet address!\\nYou are not the owner.\");\r\n        require(block.timestamp >= employeeMap[_empNumber].openDate, \"[ERROR] You can't open yet!\");\r\n        \r\n        employeeMap[_empNumber].walletAddr.transfer(employeeMap[_empNumber].money);\r\n        \r\n        return employeeMap[_empNumber].ans1;\r\n    }\r\n    \r\n    \r\n    function isEmpExist(string memory _empNumber) public view returns (bool){\r\n        if(employeeMap[_empNumber].isValid){\r\n            return true;\r\n        }\r\n        else return false;\r\n    }\r\n}",
  "sourcePath": "C:/Project/nh_ojt_e/CapBox/contracts/TimeCap.sol",
  "compiler": {
    "name": "solc",
    "version": "0.5.16+commit.9c3226ce.Emscripten.clang"
  },
  "schemaVersion": "3.2.5",
  "updatedAt": "2020-09-19T05:16:55.299Z",
  "networkType": "ethereum",
  "devdoc": {
    "methods": {}
  },
  "userdoc": {
    "methods": {}
  }
}