{
  "contractName": "Timecap",
  "abi": [
    {
      "inputs": [],
      "payable": false,
      "stateMutability": "nonpayable",
      "type": "constructor"
    },
    {
      "anonymous": false,
      "inputs": [
        {
          "indexed": false,
          "internalType": "string",
          "name": "title",
          "type": "string"
        },
        {
          "indexed": false,
          "internalType": "uint256",
          "name": "writeDate",
          "type": "uint256"
        },
        {
          "indexed": false,
          "internalType": "uint256",
          "name": "openDate",
          "type": "uint256"
        },
        {
          "indexed": false,
          "internalType": "uint256",
          "name": "ind",
          "type": "uint256"
        }
      ],
      "name": "OpenAllEvent",
      "type": "event"
    },
    {
      "anonymous": false,
      "inputs": [
        {
          "indexed": false,
          "internalType": "string",
          "name": "title",
          "type": "string"
        },
        {
          "indexed": false,
          "internalType": "string",
          "name": "ans",
          "type": "string"
        }
      ],
      "name": "OpenEvent",
      "type": "event"
    },
    {
      "constant": false,
      "inputs": [
        {
          "internalType": "string",
          "name": "_company",
          "type": "string"
        }
      ],
      "name": "setName",
      "outputs": [],
      "payable": false,
      "stateMutability": "nonpayable",
      "type": "function"
    },
    {
      "constant": false,
      "inputs": [
        {
          "internalType": "string",
          "name": "_empNumber",
          "type": "string"
        },
        {
          "internalType": "uint256",
          "name": "_writeDate",
          "type": "uint256"
        },
        {
          "internalType": "uint256",
          "name": "_openDate",
          "type": "uint256"
        },
        {
          "internalType": "string",
          "name": "_title",
          "type": "string"
        },
        {
          "internalType": "string",
          "name": "_ans",
          "type": "string"
        }
      ],
      "name": "newCap",
      "outputs": [],
      "payable": false,
      "stateMutability": "nonpayable",
      "type": "function"
    },
    {
      "constant": false,
      "inputs": [
        {
          "internalType": "string",
          "name": "_empNumber",
          "type": "string"
        },
        {
          "internalType": "uint256",
          "name": "ind",
          "type": "uint256"
        }
      ],
      "name": "openCap",
      "outputs": [],
      "payable": false,
      "stateMutability": "nonpayable",
      "type": "function"
    },
    {
      "constant": false,
      "inputs": [
        {
          "internalType": "string",
          "name": "_empNumber",
          "type": "string"
        }
      ],
      "name": "showCap",
      "outputs": [],
      "payable": false,
      "stateMutability": "nonpayable",
      "type": "function"
    },
    {
      "constant": true,
      "inputs": [
        {
          "internalType": "string",
          "name": "_empNumber",
          "type": "string"
        }
      ],
      "name": "isEmpExist",
      "outputs": [
        {
          "internalType": "bool",
          "name": "",
          "type": "bool"
        }
      ],
      "payable": false,
      "stateMutability": "view",
      "type": "function"
    }
  ],
  "bytecode": "0x608060405234801561001057600080fd5b5033600160006101000a81548173ffffffffffffffffffffffffffffffffffffffff021916908373ffffffffffffffffffffffffffffffffffffffff160217905550610ddc806100616000396000f3fe608060405234801561001057600080fd5b50600436106100575760003560e01c806356cee08f1461005c5780636715c95514610078578063678e9217146100a8578063c1ff6cf6146100c4578063c47f0027146100e0575b600080fd5b610076600480360361007191908101906108b1565b6100fc565b005b610092600480360361008d919081019061081c565b610256565b60405161009f9190610b97565b60405180910390f35b6100c260048036036100bd919081019061085d565b6102b9565b005b6100de60048036036100d9919081019061081c565b6104ad565b005b6100fa60048036036100f5919081019061081c565b610626565b005b610104610640565b6040518060c001604052803373ffffffffffffffffffffffffffffffffffffffff16815260200160011515815260200186815260200185815260200184815260200183815250905060028660405161015c9190610b80565b9081526020016040518091039020819080600181540180825580915050906001820390600052602060002090600502016000909192909190915060008201518160000160006101000a81548173ffffffffffffffffffffffffffffffffffffffff021916908373ffffffffffffffffffffffffffffffffffffffff16021790555060208201518160000160146101000a81548160ff0219169083151502179055506040820151816001015560608201518160020155608082015181600301908051906020019061022d92919061068e565b5060a082015181600401908051906020019061024a92919061068e565b50505050505050505050565b60006002826040516102689190610b80565b908152602001604051809103902060008154811061028257fe5b906000526020600020906005020160000160149054906101000a900460ff16156102af57600190506102b4565b600090505b919050565b6002826040516102c99190610b80565b908152602001604051809103902081815481106102e257fe5b906000526020600020906005020160000160009054906101000a900473ffffffffffffffffffffffffffffffffffffffff1673ffffffffffffffffffffffffffffffffffffffff163373ffffffffffffffffffffffffffffffffffffffff1614610381576040517f08c379a000000000000000000000000000000000000000000000000000000000815260040161037890610c35565b60405180910390fd5b6002826040516103919190610b80565b908152602001604051809103902081815481106103aa57fe5b9060005260206000209060050201600201544210156103fe576040517f08c379a00000000000000000000000000000000000000000000000000000000081526004016103f590610c75565b60405180910390fd5b7f98787564ab4b1d28a303eda928a9f42e4e43773da75166552afccd21ab5daa7860028360405161042f9190610b80565b9081526020016040518091039020828154811061044857fe5b90600052602060002090600502016003016002846040516104699190610b80565b9081526020016040518091039020838154811061048257fe5b90600052602060002090600502016004016040516104a1929190610bb2565b60405180910390a15050565b600115156104ba82610256565b1515146104fc576040517f08c379a00000000000000000000000000000000000000000000000000000000081526004016104f390610c55565b60405180910390fd5b60008090505b6002826040516105129190610b80565b908152602001604051809103902080549050811015610622577ffbc15871ecfe3d81665b76b7ed1a90c4b02a410eec9f139e6cf294f08eea29d960028360405161055c9190610b80565b9081526020016040518091039020828154811061057557fe5b90600052602060002090600502016003016002846040516105969190610b80565b908152602001604051809103902083815481106105af57fe5b9060005260206000209060050201600201546002856040516105d19190610b80565b908152602001604051809103902084815481106105ea57fe5b9060005260206000209060050201600101548460405161060d9493929190610be9565b60405180910390a18080600101915050610502565b5050565b806000908051906020019061063c92919061070e565b5050565b6040518060c00160405280600073ffffffffffffffffffffffffffffffffffffffff168152602001600015158152602001600081526020016000815260200160608152602001606081525090565b828054600181600116156101000203166002900490600052602060002090601f016020900481019282601f106106cf57805160ff19168380011785556106fd565b828001600101855582156106fd579182015b828111156106fc5782518255916020019190600101906106e1565b5b50905061070a919061078e565b5090565b828054600181600116156101000203166002900490600052602060002090601f016020900481019282601f1061074f57805160ff191683800117855561077d565b8280016001018555821561077d579182015b8281111561077c578251825591602001919060010190610761565b5b50905061078a919061078e565b5090565b6107b091905b808211156107ac576000816000905550600101610794565b5090565b90565b600082601f8301126107c457600080fd5b81356107d76107d282610cc2565b610c95565b915080825260208301602083018583830111156107f357600080fd5b6107fe838284610d40565b50505092915050565b60008135905061081681610d82565b92915050565b60006020828403121561082e57600080fd5b600082013567ffffffffffffffff81111561084857600080fd5b610854848285016107b3565b91505092915050565b6000806040838503121561087057600080fd5b600083013567ffffffffffffffff81111561088a57600080fd5b610896858286016107b3565b92505060206108a785828601610807565b9150509250929050565b600080600080600060a086880312156108c957600080fd5b600086013567ffffffffffffffff8111156108e357600080fd5b6108ef888289016107b3565b955050602061090088828901610807565b945050604061091188828901610807565b935050606086013567ffffffffffffffff81111561092e57600080fd5b61093a888289016107b3565b925050608086013567ffffffffffffffff81111561095757600080fd5b610963888289016107b3565b9150509295509295909350565b61097981610d2a565b82525050565b600061098a82610d03565b6109948185610d1f565b93506109a4818560208601610d4f565b80840191505092915050565b6000815460018116600081146109cd57600181146109f357610a37565b607f60028304166109de8187610d0e565b955060ff198316865260208601935050610a37565b60028204610a018187610d0e565b9550610a0c85610cee565b60005b82811015610a2e57815481890152600182019150602081019050610a0f565b80880195505050505b505092915050565b6000610a4c603483610d0e565b91507f5b4552524f525d2057726f6e672077616c6c65742061646472657373210a596f60008301527f7520617265206e6f7420746865206f776e65722e0000000000000000000000006020830152604082019050919050565b6000610ab2604183610d0e565b91507f5b4552524f525d2054686572652773206e6f2063617073756c6520646174612060008301527f6f6620656d706c6f796565206e756d6265722e0a506c6561736520636865636b60208301527f21000000000000000000000000000000000000000000000000000000000000006040830152606082019050919050565b6000610b3e601b83610d0e565b91507f5b4552524f525d20596f752063616e2774206f70656e207965742100000000006000830152602082019050919050565b610b7a81610d36565b82525050565b6000610b8c828461097f565b915081905092915050565b6000602082019050610bac6000830184610970565b92915050565b60006040820190508181036000830152610bcc81856109b0565b90508181036020830152610be081846109b0565b90509392505050565b60006080820190508181036000830152610c0381876109b0565b9050610c126020830186610b71565b610c1f6040830185610b71565b610c2c6060830184610b71565b95945050505050565b60006020820190508181036000830152610c4e81610a3f565b9050919050565b60006020820190508181036000830152610c6e81610aa5565b9050919050565b60006020820190508181036000830152610c8e81610b31565b9050919050565b6000604051905081810181811067ffffffffffffffff82111715610cb857600080fd5b8060405250919050565b600067ffffffffffffffff821115610cd957600080fd5b601f19601f8301169050602081019050919050565b60008190508160005260206000209050919050565b600081519050919050565b600082825260208201905092915050565b600081905092915050565b60008115159050919050565b6000819050919050565b82818337600083830152505050565b60005b83811015610d6d578082015181840152602081019050610d52565b83811115610d7c576000848401525b50505050565b610d8b81610d36565b8114610d9657600080fd5b5056fea365627a7a723158209fe4e652c113d0ceec1a9f1a28adb247d5d31f0b18d041adffcb779ea98b16296c6578706572696d656e74616cf564736f6c63430005100040",
  "source": "pragma solidity >=0.4.22 <0.8.0;\r\npragma experimental ABIEncoderV2;\r\n\r\ncontract Timecap {\r\n    string company; //company name\r\n    address companyAddr;\r\n    mapping(string => timecap[]) employeeMap; //employeeNumber -- employeeData\r\n    \r\n    struct timecap {\r\n        address walletAddr;\r\n        bool isValid;\r\n        uint writeDate;\r\n        uint openDate;\r\n        \r\n        string title;\r\n        string ans;\r\n    }\r\n    \r\n    //constructor of this contract\r\n    constructor () public {\r\n        companyAddr = msg.sender;\r\n    }\r\n\r\n    //set name of this contract's company\r\n    function setName(string memory _company) public {\r\n        company = _company;\r\n    }\r\n    \r\n    //make new capsule for new employee\r\n    function newCap(string memory _empNumber, uint _writeDate, uint _openDate, string memory _title, string memory _ans) public {\r\n        timecap memory t = timecap(msg.sender, true, _writeDate, _openDate,  _title, _ans);\r\n        employeeMap[_empNumber].push(t);\r\n        //companyAddr.transfer(msg.value);\r\n    }\r\n    \r\n    event OpenAllEvent(string title, uint writeDate, uint openDate, uint ind);\r\n    event OpenEvent(string title, string ans);\r\n    //open capsule after opendate, and send money to the owner\r\n    \r\n    function openCap(string memory _empNumber, uint ind) public {\r\n        require(msg.sender == employeeMap[_empNumber][ind].walletAddr, \"[ERROR] Wrong wallet address!\\nYou are not the owner.\");\r\n        require(block.timestamp >= employeeMap[_empNumber][ind].openDate, \"[ERROR] You can't open yet!\");\r\n\r\n        emit OpenEvent(employeeMap[_empNumber][ind].title, employeeMap[_empNumber][ind].ans);\r\n    }\r\n    \r\n    \r\n    function showCap(string memory _empNumber) public {\r\n        require(isEmpExist(_empNumber)==true, \"[ERROR] There's no capsule data of employee number.\\nPlease check!\");\r\n        \r\n        for(uint i=0;i<employeeMap[_empNumber].length;i++){\r\n            emit OpenAllEvent(employeeMap[_empNumber][i].title, employeeMap[_empNumber][i].openDate, employeeMap[_empNumber][i].writeDate, i);\r\n        }\r\n    }\r\n    \r\n    //check if the employee already made the capsule\r\n    function isEmpExist(string memory _empNumber) public view returns (bool){\r\n        if(employeeMap[_empNumber][0].isValid){\r\n            return true;\r\n        }\r\n        else return false;\r\n    }\r\n    \r\n}",
  "sourcePath": "C:/Project/nh_ojt_e/CapBox/contracts/TimeCap.sol",
  "compiler": {
    "name": "solc",
    "version": "0.5.16+commit.9c3226ce.Emscripten.clang"
  },
  "schemaVersion": "3.2.5",
  "updatedAt": "2020-09-23T23:13:46.989Z",
  "networkType": "ethereum",
  "devdoc": {
    "methods": {}
  },
  "userdoc": {
    "methods": {}
  }
}