{
  "contractName": "Timecap",
  "abi": [
    {
      "inputs": [],
      "payable": false,
      "stateMutability": "nonpayable",
      "type": "constructor"
    },
    {
      "constant": false,
      "inputs": [
        {
          "internalType": "string",
          "name": "_company",
          "type": "string"
        }
      ],
      "name": "setName",
      "outputs": [],
      "payable": false,
      "stateMutability": "nonpayable",
      "type": "function"
    },
    {
      "constant": false,
      "inputs": [
        {
          "internalType": "string",
          "name": "_empNumber",
          "type": "string"
        },
        {
          "internalType": "uint256",
          "name": "_hireDate",
          "type": "uint256"
        },
        {
          "internalType": "uint256",
          "name": "_openDate",
          "type": "uint256"
        },
        {
          "internalType": "uint256",
          "name": "_money",
          "type": "uint256"
        },
        {
          "internalType": "string",
          "name": "_ans1",
          "type": "string"
        },
        {
          "internalType": "string",
          "name": "_ans2",
          "type": "string"
        },
        {
          "internalType": "string",
          "name": "_ans3",
          "type": "string"
        },
        {
          "internalType": "string",
          "name": "_ans4",
          "type": "string"
        },
        {
          "internalType": "string",
          "name": "_ans5",
          "type": "string"
        },
        {
          "internalType": "string",
          "name": "_ans6",
          "type": "string"
        }
      ],
      "name": "newCap",
      "outputs": [],
      "payable": true,
      "stateMutability": "payable",
      "type": "function"
    },
    {
      "constant": false,
      "inputs": [
        {
          "internalType": "string",
          "name": "_empNumber",
          "type": "string"
        }
      ],
      "name": "openCap",
      "outputs": [
        {
          "internalType": "string[]",
          "name": "",
          "type": "string[]"
        }
      ],
      "payable": true,
      "stateMutability": "payable",
      "type": "function"
    },
    {
      "constant": true,
      "inputs": [
        {
          "internalType": "string",
          "name": "_empNumber",
          "type": "string"
        }
      ],
      "name": "isEmpExist",
      "outputs": [
        {
          "internalType": "bool",
          "name": "",
          "type": "bool"
        }
      ],
      "payable": false,
      "stateMutability": "view",
      "type": "function"
    }
  ],
  "bytecode": "0x608060405234801561001057600080fd5b5033600160006101000a81548173ffffffffffffffffffffffffffffffffffffffff021916908373ffffffffffffffffffffffffffffffffffffffff160217905550611304806100616000396000f3fe60806040526004361061003f5760003560e01c80631350aaec146100445780636715c95514610074578063b300e813146100b1578063c47f0027146100cd575b600080fd5b61005e60048036036100599190810190610c3a565b6100f6565b60405161006b91906110af565b60405180910390f35b34801561008057600080fd5b5061009b60048036036100969190810190610c3a565b610832565b6040516100a891906110d1565b60405180910390f35b6100cb60048036036100c69190810190610c7b565b61087b565b005b3480156100d957600080fd5b506100f460048036036100ef9190810190610c3a565b610a92565b005b60606001151561010583610832565b151514610147576040517f08c379a000000000000000000000000000000000000000000000000000000000815260040161013e9061112c565b60405180910390fd5b6002826040516101579190611098565b908152602001604051809103902060000160009054906101000a900473ffffffffffffffffffffffffffffffffffffffff1673ffffffffffffffffffffffffffffffffffffffff163373ffffffffffffffffffffffffffffffffffffffff16146101f6576040517f08c379a00000000000000000000000000000000000000000000000000000000081526004016101ed9061110c565b60405180910390fd5b6002826040516102069190611098565b90815260200160405180910390206002015442101561025a576040517f08c379a00000000000000000000000000000000000000000000000000000000081526004016102519061114c565b60405180910390fd5b60028260405161026a9190611098565b908152602001604051809103902060000160009054906101000a900473ffffffffffffffffffffffffffffffffffffffff1673ffffffffffffffffffffffffffffffffffffffff166108fc6002846040516102c59190611098565b9081526020016040518091039020600301549081150290604051600060405180830381858888f19350505050158015610302573d6000803e3d6000fd5b506060600660405190808252806020026020018201604052801561033a57816020015b60608152602001906001900390816103255790505b50905060028360405161034d9190611098565b90815260200160405180910390206004018054600181600116156101000203166002900480601f0160208091040260200160405190810160405280929190818152602001828054600181600116156101000203166002900480156103f25780601f106103c7576101008083540402835291602001916103f2565b820191906000526020600020905b8154815290600101906020018083116103d557829003601f168201915b50505050508160008151811061040457fe5b602002602001018190525060028360405161041f9190611098565b90815260200160405180910390206005018054600181600116156101000203166002900480601f0160208091040260200160405190810160405280929190818152602001828054600181600116156101000203166002900480156104c45780601f10610499576101008083540402835291602001916104c4565b820191906000526020600020905b8154815290600101906020018083116104a757829003601f168201915b5050505050816001815181106104d657fe5b60200260200101819052506002836040516104f19190611098565b90815260200160405180910390206006018054600181600116156101000203166002900480601f0160208091040260200160405190810160405280929190818152602001828054600181600116156101000203166002900480156105965780601f1061056b57610100808354040283529160200191610596565b820191906000526020600020905b81548152906001019060200180831161057957829003601f168201915b5050505050816002815181106105a857fe5b60200260200101819052506002836040516105c39190611098565b90815260200160405180910390206007018054600181600116156101000203166002900480601f0160208091040260200160405190810160405280929190818152602001828054600181600116156101000203166002900480156106685780601f1061063d57610100808354040283529160200191610668565b820191906000526020600020905b81548152906001019060200180831161064b57829003601f168201915b50505050508160038151811061067a57fe5b60200260200101819052506002836040516106959190611098565b90815260200160405180910390206008018054600181600116156101000203166002900480601f01602080910402602001604051908101604052809291908181526020018280546001816001161561010002031660029004801561073a5780601f1061070f5761010080835404028352916020019161073a565b820191906000526020600020905b81548152906001019060200180831161071d57829003601f168201915b50505050508160048151811061074c57fe5b60200260200101819052506002836040516107679190611098565b90815260200160405180910390206009018054600181600116156101000203166002900480601f01602080910402602001604051908101604052809291908181526020018280546001816001161561010002031660029004801561080c5780601f106107e15761010080835404028352916020019161080c565b820191906000526020600020905b8154815290600101906020018083116107ef57829003601f168201915b50505050508160058151811061081e57fe5b602002602001018190525080915050919050565b60006002826040516108449190611098565b908152602001604051809103902060000160149054906101000a900460ff16156108715760019050610876565b600090505b919050565b600015156108888b610832565b1515146108ca576040517f08c379a00000000000000000000000000000000000000000000000000000000081526004016108c1906110ec565b60405180910390fd5b6040518061016001604052803373ffffffffffffffffffffffffffffffffffffffff1681526020016001151581526020018a81526020018981526020018881526020018781526020018681526020018581526020018481526020018381526020018281525060028b60405161093f9190611098565b908152602001604051809103902060008201518160000160006101000a81548173ffffffffffffffffffffffffffffffffffffffff021916908373ffffffffffffffffffffffffffffffffffffffff16021790555060208201518160000160146101000a81548160ff02191690831515021790555060408201518160010155606082015181600201556080820151816003015560a08201518160040190805190602001906109ee929190610aac565b5060c0820151816005019080519060200190610a0b929190610aac565b5060e0820151816006019080519060200190610a28929190610aac565b50610100820151816007019080519060200190610a46929190610aac565b50610120820151816008019080519060200190610a64929190610aac565b50610140820151816009019080519060200190610a82929190610aac565b5090505050505050505050505050565b8060009080519060200190610aa8929190610b2c565b5050565b828054600181600116156101000203166002900490600052602060002090601f016020900481019282601f10610aed57805160ff1916838001178555610b1b565b82800160010185558215610b1b579182015b82811115610b1a578251825591602001919060010190610aff565b5b509050610b289190610bac565b5090565b828054600181600116156101000203166002900490600052602060002090601f016020900481019282601f10610b6d57805160ff1916838001178555610b9b565b82800160010185558215610b9b579182015b82811115610b9a578251825591602001919060010190610b7f565b5b509050610ba89190610bac565b5090565b610bce91905b80821115610bca576000816000905550600101610bb2565b5090565b90565b600082601f830112610be257600080fd5b8135610bf5610bf082611199565b61116c565b91508082526020830160208301858383011115610c1157600080fd5b610c1c838284611257565b50505092915050565b600081359050610c34816112aa565b92915050565b600060208284031215610c4c57600080fd5b600082013567ffffffffffffffff811115610c6657600080fd5b610c7284828501610bd1565b91505092915050565b6000806000806000806000806000806101408b8d031215610c9b57600080fd5b60008b013567ffffffffffffffff811115610cb557600080fd5b610cc18d828e01610bd1565b9a50506020610cd28d828e01610c25565b9950506040610ce38d828e01610c25565b9850506060610cf48d828e01610c25565b97505060808b013567ffffffffffffffff811115610d1157600080fd5b610d1d8d828e01610bd1565b96505060a08b013567ffffffffffffffff811115610d3a57600080fd5b610d468d828e01610bd1565b95505060c08b013567ffffffffffffffff811115610d6357600080fd5b610d6f8d828e01610bd1565b94505060e08b013567ffffffffffffffff811115610d8c57600080fd5b610d988d828e01610bd1565b9350506101008b013567ffffffffffffffff811115610db657600080fd5b610dc28d828e01610bd1565b9250506101208b013567ffffffffffffffff811115610de057600080fd5b610dec8d828e01610bd1565b9150509295989b9194979a5092959850565b6000610e0a8383610ec7565b905092915050565b6000610e1d826111d5565b610e278185611203565b935083602082028501610e39856111c5565b8060005b85811015610e755784840389528151610e568582610dfe565b9450610e61836111f6565b925060208a01995050600181019050610e3d565b50829750879550505050505092915050565b610e9081611241565b82525050565b6000610ea1826111eb565b610eab8185611236565b9350610ebb818560208601611266565b80840191505092915050565b6000610ed2826111e0565b610edc8185611214565b9350610eec818560208601611266565b610ef581611299565b840191505092915050565b6000610f0d603583611225565b91507f5b4552524f525d20436865636b2074686520656d706c6f796565206e756d626560008301527f722e0a497420616c7265616479206578697374732100000000000000000000006020830152604082019050919050565b6000610f73603483611225565b91507f5b4552524f525d2057726f6e672077616c6c65742061646472657373210a596f60008301527f7520617265206e6f7420746865206f776e65722e0000000000000000000000006020830152604082019050919050565b6000610fd9604183611225565b91507f5b4552524f525d2054686572652773206e6f2063617073756c6520646174612060008301527f6f6620656d706c6f796565206e756d6265722e0a506c6561736520636865636b60208301527f21000000000000000000000000000000000000000000000000000000000000006040830152606082019050919050565b6000611065601b83611225565b91507f5b4552524f525d20596f752063616e2774206f70656e207965742100000000006000830152602082019050919050565b60006110a48284610e96565b915081905092915050565b600060208201905081810360008301526110c98184610e12565b905092915050565b60006020820190506110e66000830184610e87565b92915050565b6000602082019050818103600083015261110581610f00565b9050919050565b6000602082019050818103600083015261112581610f66565b9050919050565b6000602082019050818103600083015261114581610fcc565b9050919050565b6000602082019050818103600083015261116581611058565b9050919050565b6000604051905081810181811067ffffffffffffffff8211171561118f57600080fd5b8060405250919050565b600067ffffffffffffffff8211156111b057600080fd5b601f19601f8301169050602081019050919050565b6000819050602082019050919050565b600081519050919050565b600081519050919050565b600081519050919050565b6000602082019050919050565b600082825260208201905092915050565b600082825260208201905092915050565b600082825260208201905092915050565b600081905092915050565b60008115159050919050565b6000819050919050565b82818337600083830152505050565b60005b83811015611284578082015181840152602081019050611269565b83811115611293576000848401525b50505050565b6000601f19601f8301169050919050565b6112b38161124d565b81146112be57600080fd5b5056fea365627a7a72315820e9c0dd70e5698bca718e1edce72d1bf07123b3c44cb24e3794830988cc12f5536c6578706572696d656e74616cf564736f6c63430005100040",
  "source": "pragma solidity >=0.4.22 <0.8.0;\r\npragma experimental ABIEncoderV2;\r\n\r\ncontract Timecap {\r\n    string company; //company name\r\n    address payable companyAddr;\r\n    mapping(string => timecap) employeeMap; //employeeNumber -- employeeData\r\n\r\n    struct timecap {\r\n        address payable walletAddr;\r\n        bool isValid;\r\n        uint hireDate;\r\n        uint openDate;\r\n        \r\n        uint money;\r\n        \r\n        string ans1;\r\n        string ans2;\r\n        string ans3;\r\n        string ans4;\r\n        string ans5;\r\n        string ans6;\r\n    }\r\n    \r\n    //constructor of this contract\r\n    constructor () public {\r\n        companyAddr = msg.sender;\r\n    }\r\n\r\n    //set name of this contract's company\r\n    function setName(string memory _company) public {\r\n        company = _company;\r\n    }\r\n    \r\n    //make new capsule for new employee\r\n    function newCap(string memory _empNumber, uint _hireDate, uint _openDate, uint _money, string memory _ans1, string memory _ans2, string memory _ans3, string memory _ans4, string memory _ans5, string memory _ans6) public payable{\r\n        require(isEmpExist(_empNumber)==false, \"[ERROR] Check the employee number.\\nIt already exists!\");\r\n        \r\n        employeeMap[_empNumber] = timecap(msg.sender, true, _hireDate, _openDate, _money, _ans1, _ans2, _ans3, _ans4, _ans5, _ans6);\r\n       //companyAddr.transfer(msg.value);\r\n    }\r\n    \r\n    //open capsule after opendate, and send money to the owner\r\n    function openCap(string memory _empNumber) public payable returns (string[] memory){\r\n        require(isEmpExist(_empNumber)==true, \"[ERROR] There's no capsule data of employee number.\\nPlease check!\");\r\n        require(msg.sender == employeeMap[_empNumber].walletAddr, \"[ERROR] Wrong wallet address!\\nYou are not the owner.\");\r\n        require(block.timestamp >= employeeMap[_empNumber].openDate, \"[ERROR] You can't open yet!\");\r\n        \r\n        employeeMap[_empNumber].walletAddr.transfer(employeeMap[_empNumber].money);\r\n        string[] memory arr = new string[](6);\r\n        arr[0] = employeeMap[_empNumber].ans1;\r\n        arr[1] = employeeMap[_empNumber].ans2;\r\n        arr[2] = employeeMap[_empNumber].ans3;\r\n        arr[3] = employeeMap[_empNumber].ans4;\r\n        arr[4] = employeeMap[_empNumber].ans5;\r\n        arr[5] = employeeMap[_empNumber].ans6;\r\n\r\n        return arr;\r\n    }\r\n    /*\r\n    function openCap2(string memory _empNumber) public view returns (string memory){\r\n        return employeeMap[_empNumber].ans2;\r\n    }\r\n\r\n    function openCap3(string memory _empNumber) public view returns (string memory){\r\n        return employeeMap[_empNumber].ans2;\r\n    }\r\n\r\n    function openCap4(string memory _empNumber) public view returns (string memory){\r\n        return employeeMap[_empNumber].ans2;\r\n    }\r\n\r\n    function openCap5(string memory _empNumber) public view returns (string memory){\r\n        return employeeMap[_empNumber].ans2;\r\n    }\r\n\r\n    function openCap6(string memory _empNumber) public view returns (string memory){\r\n        return employeeMap[_empNumber].ans2;\r\n    }\r\n    */\r\n    \r\n    //check if the employee already made the capsule\r\n    function isEmpExist(string memory _empNumber) public view returns (bool){\r\n        if(employeeMap[_empNumber].isValid){\r\n            return true;\r\n        }\r\n        else return false;\r\n    }\r\n}",
  "sourcePath": "C:/Project/nh_ojt_e/CapBox/contracts/TimeCap.sol",
  "compiler": {
    "name": "solc",
    "version": "0.5.16+commit.9c3226ce.Emscripten.clang"
  },
  "schemaVersion": "3.2.5",
  "updatedAt": "2020-09-21T04:43:59.009Z",
  "networkType": "ethereum",
  "devdoc": {
    "methods": {}
  },
  "userdoc": {
    "methods": {}
  }
}