{
  "contractName": "Timecap",
  "abi": [
    {
      "inputs": [],
      "payable": false,
      "stateMutability": "nonpayable",
      "type": "constructor"
    },
    {
      "constant": false,
      "inputs": [
        {
          "internalType": "string",
          "name": "_company",
          "type": "string"
        }
      ],
      "name": "setName",
      "outputs": [],
      "payable": false,
      "stateMutability": "nonpayable",
      "type": "function"
    },
    {
      "constant": false,
      "inputs": [
        {
          "internalType": "string",
          "name": "_empNumber",
          "type": "string"
        },
        {
          "internalType": "uint256",
          "name": "_hireDate",
          "type": "uint256"
        },
        {
          "internalType": "uint256",
          "name": "_openDate",
          "type": "uint256"
        },
        {
          "internalType": "uint256",
          "name": "_money",
          "type": "uint256"
        },
        {
          "internalType": "string[]",
          "name": "_answers",
          "type": "string[]"
        }
      ],
      "name": "newCap",
      "outputs": [],
      "payable": true,
      "stateMutability": "payable",
      "type": "function"
    },
    {
      "constant": false,
      "inputs": [
        {
          "internalType": "string",
          "name": "_empNumber",
          "type": "string"
        }
      ],
      "name": "openCap",
      "outputs": [
        {
          "internalType": "string[]",
          "name": "",
          "type": "string[]"
        }
      ],
      "payable": true,
      "stateMutability": "payable",
      "type": "function"
    },
    {
      "constant": true,
      "inputs": [
        {
          "internalType": "string",
          "name": "_empNumber",
          "type": "string"
        }
      ],
      "name": "isEmpExist",
      "outputs": [
        {
          "internalType": "bool",
          "name": "",
          "type": "bool"
        }
      ],
      "payable": false,
      "stateMutability": "view",
      "type": "function"
    }
  ],
  "bytecode": "0x608060405234801561001057600080fd5b5033600160006101000a81548173ffffffffffffffffffffffffffffffffffffffff021916908373ffffffffffffffffffffffffffffffffffffffff160217905550610fa2806100616000396000f3fe60806040526004361061003f5760003560e01c80631350aaec1461004457806346447167146100745780636715c95514610090578063c47f0027146100cd575b600080fd5b61005e60048036036100599190810190610960565b6100f6565b60405161006b9190610cf9565b60405180910390f35b61008e600480360361008991908101906109a1565b61040b565b005b34801561009c57600080fd5b506100b760048036036100b29190810190610960565b6105d3565b6040516100c49190610d1b565b60405180910390f35b3480156100d957600080fd5b506100f460048036036100ef9190810190610960565b61061c565b005b606060011515610105836105d3565b151514610147576040517f08c379a000000000000000000000000000000000000000000000000000000000815260040161013e90610d76565b60405180910390fd5b6002826040516101579190610ce2565b908152602001604051809103902060000160009054906101000a900473ffffffffffffffffffffffffffffffffffffffff1673ffffffffffffffffffffffffffffffffffffffff163373ffffffffffffffffffffffffffffffffffffffff16146101f6576040517f08c379a00000000000000000000000000000000000000000000000000000000081526004016101ed90610d56565b60405180910390fd5b6002826040516102069190610ce2565b90815260200160405180910390206002015442101561025a576040517f08c379a000000000000000000000000000000000000000000000000000000000815260040161025190610d96565b60405180910390fd5b60028260405161026a9190610ce2565b908152602001604051809103902060000160009054906101000a900473ffffffffffffffffffffffffffffffffffffffff1673ffffffffffffffffffffffffffffffffffffffff166108fc6002846040516102c59190610ce2565b9081526020016040518091039020600301549081150290604051600060405180830381858888f19350505050158015610302573d6000803e3d6000fd5b506002826040516103139190610ce2565b9081526020016040518091039020600401805480602002602001604051908101604052809291908181526020016000905b82821015610400578382906000526020600020018054600181600116156101000203166002900480601f0160208091040260200160405190810160405280929190818152602001828054600181600116156101000203166002900480156103ec5780601f106103c1576101008083540402835291602001916103ec565b820191906000526020600020905b8154815290600101906020018083116103cf57829003601f168201915b505050505081526020019060010190610344565b505050509050919050565b60001515610418866105d3565b15151461045a576040517f08c379a000000000000000000000000000000000000000000000000000000000815260040161045190610d36565b60405180910390fd5b6040518060c001604052803373ffffffffffffffffffffffffffffffffffffffff168152602001600115158152602001858152602001848152602001838152602001828152506002866040516104b09190610ce2565b908152602001604051809103902060008201518160000160006101000a81548173ffffffffffffffffffffffffffffffffffffffff021916908373ffffffffffffffffffffffffffffffffffffffff16021790555060208201518160000160146101000a81548160ff02191690831515021790555060408201518160010155606082015181600201556080820151816003015560a082015181600401908051906020019061055f929190610636565b50905050600160009054906101000a900473ffffffffffffffffffffffffffffffffffffffff1673ffffffffffffffffffffffffffffffffffffffff166108fc839081150290604051600060405180830381858888f193505050501580156105cb573d6000803e3d6000fd5b505050505050565b60006002826040516105e59190610ce2565b908152602001604051809103902060000160149054906101000a900460ff16156106125760019050610617565b600090505b919050565b8060009080519060200190610632929190610696565b5050565b828054828255906000526020600020908101928215610685579160200282015b82811115610684578251829080519060200190610674929190610716565b5091602001919060010190610656565b5b5090506106929190610796565b5090565b828054600181600116156101000203166002900490600052602060002090601f016020900481019282601f106106d757805160ff1916838001178555610705565b82800160010185558215610705579182015b828111156107045782518255916020019190600101906106e9565b5b50905061071291906107c2565b5090565b828054600181600116156101000203166002900490600052602060002090601f016020900481019282601f1061075757805160ff1916838001178555610785565b82800160010185558215610785579182015b82811115610784578251825591602001919060010190610769565b5b50905061079291906107c2565b5090565b6107bf91905b808211156107bb57600081816107b291906107e7565b5060010161079c565b5090565b90565b6107e491905b808211156107e05760008160009055506001016107c8565b5090565b90565b50805460018160011615610100020316600290046000825580601f1061080d575061082c565b601f01602090049060005260206000209081019061082b91906107c2565b5b50565b600082601f83011261084057600080fd5b813561085361084e82610de3565b610db6565b9150818183526020840193506020810190508360005b83811015610899578135860161087f88826108a3565b845260208401935060208301925050600181019050610869565b5050505092915050565b600082601f8301126108b457600080fd5b81356108c76108c282610e0b565b610db6565b915080825260208301602083018583830111156108e357600080fd5b6108ee838284610ef5565b50505092915050565b600082601f83011261090857600080fd5b813561091b61091682610e37565b610db6565b9150808252602083016020830185838301111561093757600080fd5b610942838284610ef5565b50505092915050565b60008135905061095a81610f48565b92915050565b60006020828403121561097257600080fd5b600082013567ffffffffffffffff81111561098c57600080fd5b610998848285016108f7565b91505092915050565b600080600080600060a086880312156109b957600080fd5b600086013567ffffffffffffffff8111156109d357600080fd5b6109df888289016108f7565b95505060206109f08882890161094b565b9450506040610a018882890161094b565b9350506060610a128882890161094b565b925050608086013567ffffffffffffffff811115610a2f57600080fd5b610a3b8882890161082f565b9150509295509295909350565b6000610a548383610b11565b905092915050565b6000610a6782610e73565b610a718185610ea1565b935083602082028501610a8385610e63565b8060005b85811015610abf5784840389528151610aa08582610a48565b9450610aab83610e94565b925060208a01995050600181019050610a87565b50829750879550505050505092915050565b610ada81610edf565b82525050565b6000610aeb82610e89565b610af58185610ed4565b9350610b05818560208601610f04565b80840191505092915050565b6000610b1c82610e7e565b610b268185610eb2565b9350610b36818560208601610f04565b610b3f81610f37565b840191505092915050565b6000610b57603583610ec3565b91507f5b4552524f525d20436865636b2074686520656d706c6f796565206e756d626560008301527f722e0a497420616c7265616479206578697374732100000000000000000000006020830152604082019050919050565b6000610bbd603483610ec3565b91507f5b4552524f525d2057726f6e672077616c6c65742061646472657373210a596f60008301527f7520617265206e6f7420746865206f776e65722e0000000000000000000000006020830152604082019050919050565b6000610c23604183610ec3565b91507f5b4552524f525d2054686572652773206e6f2063617073756c6520646174612060008301527f6f6620656d706c6f796565206e756d6265722e0a506c6561736520636865636b60208301527f21000000000000000000000000000000000000000000000000000000000000006040830152606082019050919050565b6000610caf601b83610ec3565b91507f5b4552524f525d20596f752063616e2774206f70656e207965742100000000006000830152602082019050919050565b6000610cee8284610ae0565b915081905092915050565b60006020820190508181036000830152610d138184610a5c565b905092915050565b6000602082019050610d306000830184610ad1565b92915050565b60006020820190508181036000830152610d4f81610b4a565b9050919050565b60006020820190508181036000830152610d6f81610bb0565b9050919050565b60006020820190508181036000830152610d8f81610c16565b9050919050565b60006020820190508181036000830152610daf81610ca2565b9050919050565b6000604051905081810181811067ffffffffffffffff82111715610dd957600080fd5b8060405250919050565b600067ffffffffffffffff821115610dfa57600080fd5b602082029050602081019050919050565b600067ffffffffffffffff821115610e2257600080fd5b601f19601f8301169050602081019050919050565b600067ffffffffffffffff821115610e4e57600080fd5b601f19601f8301169050602081019050919050565b6000819050602082019050919050565b600081519050919050565b600081519050919050565b600081519050919050565b6000602082019050919050565b600082825260208201905092915050565b600082825260208201905092915050565b600082825260208201905092915050565b600081905092915050565b60008115159050919050565b6000819050919050565b82818337600083830152505050565b60005b83811015610f22578082015181840152602081019050610f07565b83811115610f31576000848401525b50505050565b6000601f19601f8301169050919050565b610f5181610eeb565b8114610f5c57600080fd5b5056fea365627a7a72315820090709bb07aa927fd75a8bd182182f72f88e3ec29dc9f8361b069eb87c7050296c6578706572696d656e74616cf564736f6c63430005100040",
  "source": "pragma solidity >=0.4.22 <0.8.0;\r\npragma experimental ABIEncoderV2;\r\n\r\ncontract Timecap {\r\n    string company; //company name\r\n    address payable companyAddr;\r\n    mapping(string => timecap) employeeMap; //employeeNumber -- employeeData\r\n\r\n    struct timecap {\r\n        address payable walletAddr;\r\n        bool isValid;\r\n        uint hireDate;\r\n        uint openDate;\r\n        \r\n        uint money;\r\n        \r\n        string[] answers;\r\n    }\r\n    \r\n    \r\n    constructor () public {\r\n        companyAddr = msg.sender;\r\n    }\r\n\r\n    function setName(string memory _company) public {\r\n        company = _company;\r\n    }\r\n    \r\n    \r\n    function newCap(string memory _empNumber, uint _hireDate, uint _openDate, uint _money, string[] memory _answers) public payable{\r\n        require(isEmpExist(_empNumber)==false, \"[ERROR] Check the employee number.\\nIt already exists!\");\r\n        \r\n        employeeMap[_empNumber] = timecap(msg.sender, true, _hireDate, _openDate, _money, _answers);\r\n       companyAddr.transfer(_money);\r\n    }\r\n    \r\n    \r\n    function openCap(string memory _empNumber) public payable returns (string[] memory){\r\n        require(isEmpExist(_empNumber)==true, \"[ERROR] There's no capsule data of employee number.\\nPlease check!\");\r\n        require(msg.sender == employeeMap[_empNumber].walletAddr, \"[ERROR] Wrong wallet address!\\nYou are not the owner.\");\r\n        require(now >= employeeMap[_empNumber].openDate, \"[ERROR] You can't open yet!\");\r\n        \r\n        employeeMap[_empNumber].walletAddr.transfer(employeeMap[_empNumber].money);\r\n        \r\n        return employeeMap[_empNumber].answers;\r\n    }\r\n    \r\n    \r\n    function isEmpExist(string memory _empNumber) public view returns (bool){\r\n        if(employeeMap[_empNumber].isValid){\r\n            return true;\r\n        }\r\n        else return false;\r\n    }\r\n}",
  "sourcePath": "C:/Project/nh_ojt_e/CapBox/contracts/TimeCap.sol",
  "compiler": {
    "name": "solc",
    "version": "0.5.16+commit.9c3226ce.Emscripten.clang"
  },
  "schemaVersion": "3.2.5",
  "updatedAt": "2020-09-17T00:08:54.362Z",
  "networkType": "ethereum",
  "devdoc": {
    "methods": {}
  },
  "userdoc": {
    "methods": {}
  }
}